:020000040800F2
:1000000000000220710500087746000875460008C8
:1000100073460008714600086F46000800000000A3
:100020000000000000000000000000006D46000815
:100030006B460008000000006946000825460008DD
:10004000C1050008C1050008C1050008C105000878
:10005000C1050008C1050008C1050008C105000868
:10006000C1050008C1050008C1050008C105000858
:10007000C1050008C1050008C1050008C105000848
:10008000C1050008C1050008C1050008C105000838
:10009000C1050008C1050008C1050008C105000828
:1000A000C1050008A9450008C1050008C1050008F0
:1000B000C1050008C1050008C1050008C105000808
:1000C000C1050008C1050008C1050008C1050008F8
:1000D000C1050008C1050008C1050008C1050008E8
:1000E000C1050008C1050008C1050008C1050008D8
:1000F000C1050008C1050008C1050008C1050008C8
:10010000C1050008C1050008C1050008C1050008B7
:10011000C1050008C1050008C1050008C1050008A7
:10012000C1050008C1050008C1050008C105000897
:10013000C1050008C1050008C1050008C105000887
:10014000C1050008C1050008C105000815460008E2
:10015000C1050008C1050008C1050008C105000867
:10016000C1050008C1050008C1050008C105000857
:10017000C1050008C1050008C10500080000000015
:08018000C1050008C1050008DB
:1001900010B5054C237833B9044B13B10448AFF3C1
:1001A00000800123237010BD1C020020000000000D
:1001B000F458000808B5034B1BB103490348AFF3DB
:1001C000008008BD0000000020020020F458000854
:1001D00001F0FF01102A2BDB10F0070F08D010F8F8
:1001E000013B013A8B422DD010F0070F42B3F6D1FC
:1001F000F0B441EA012141EA014122F007047FF015
:1002000000070023F0E80256083C85EA010586EA6B
:10021000010685FA47F5A3FA87F586FA47F6A5FAA7
:1002200087F68EB9EED1F0BC01F0FF0102F00702B3
:1002300032B110F8013B013A83EA010313B1F8D15E
:100240000020704701387047002D06BF354603383F
:10025000073815F0010F07D1013015F4807F02BF78
:10026000013015F4C03F0130F0BC0138704700BFC9
:1002700053B94AB9002908BF00281CBF4FF0FF310D
:100280004FF0FF3000F072B9ADF1080C6DE904CE0B
:1002900000F006F8DDF804E0DDE9022304B0704761
:1002A0002DE9F047089E04468846002B4BD18A4230
:1002B000154667D9B2FA82F24AB1C2F1200701FAB3
:1002C00002F320FA07F7954047EA030894404FEA03
:1002D000154E230CB8FBFEF71FFA85FC0EFB1788A2
:1002E00043EA084307FB0CF1994209D9EB1807F1DF
:1002F000FF3080F01B81994240F21881023F2B446D
:100300005B1AA4B2B3FBFEF00EFB103344EA0344C5
:1003100000FB0CFCA44509D92C1900F1FF3380F037
:100320000781A44540F2048102382C4440EA07408A
:10033000A4EB0C0400271EB1D4400023C6E90043FF
:100340003946BDE8F0878B4209D9002E00F0EB80DA
:100350000027C6E9000138463946BDE8F087B3FA00
:1003600083F7002F47D18B4202D3824200F2FA80FA
:10037000841A61EB030301209846002EE0D0C6E901
:100380000048DDE702B9FFDEB2FA82F2002A40F04F
:100390008F80491B4FEA154E1FFA85F80127B1FBE4
:1003A000FEFC230C0EFB1C1143EA014308FB0CF17D
:1003B000994207D9EB180CF1FF3002D2994200F2B2
:1003C000CD808446591AA3B2B1FBFEF00EFB101487
:1003D00043EA044408FB00F8A04507D92C1900F1B2
:1003E000FF3302D2A04500F2B6801846A4EB080401
:1003F00040EA0C409FE7C7F1200CBB4022FA0CFEFC
:100400004EEA030E01FA07F420FA0CF521FA0CF378
:100410004FEA1E482543B3FBF8F92C0C08FB1933AF
:100420001FFA8EFA44EA034309FB0AF49C4202FADB
:1004300007F200FA07F10BD91EEB030309F1FF30B5
:1004400080F087809C4240F28480A9F102097344C5
:100450001B1BADB2B3FBF8F008FB103345EA0344B5
:1004600000FB0AFAA24508D91EEB040400F1FF3391
:100470006BD2A24569D90238744440EA0940A0FB16
:100480000289A4EB0A044C45C2464B4654D351D0D2
:10049000002E69D0B1EB0A0564EB030404FA0CFCEE
:1004A000FD40FC404CEA0505C6E90054002747E73B
:1004B000C2F1200320FA03F7954001FA02F021FA75
:1004C00003F34FEA154E3843010CB3FBFEF71FFA56
:1004D00085F80EFB173341EA034107FB08F38B4213
:1004E00004FA02F407D9691807F1FF3C2FD28B42B6
:1004F0002DD9023F2944CB1A81B2B3FBFEF00EFB8B
:10050000103341EA034100FB08F38B4207D9691815
:1005100000F1FF3C17D28B4215D902382944C91A81
:1005200040EA07473BE73746304609E70746E7E634
:100530001846FBE64145ABD2B8EB020A69EB0E0266
:1005400001381346A4E76046E9E7184695E7674691
:10055000D1E781467CE702382C4447E7ACF1020C36
:100560002B442FE7384608E73746E9E6704700BFD7
:10057000DFF834D0002103E00C4B5B5843500431CA
:100580000B480C4B42189A42F6D30B4A02E0002368
:1005900042F8043B094B9A42F9D304F015F804F0F1
:1005A000C5F804F07BF8704700000220345A0008B8
:1005B000000000201C0200201C0200209C9600204D
:1005C000FEE70000014B1878704700BF440E002082
:1005D00004230B80004870475801002012230B8031
:1005E0000048704730010020002302E00133DBB2F5
:1005F00001300278002AF9D118467047C8B170B5A9
:100600000D4616460446FFF7EFFF013040003080EC
:10061000287003236B70022307E0EA5401345A1C4C
:10062000D2B20021A9540233DBB22278002AF4D1DD
:1006300070BD704708B50A4628B105490548FFF75F
:10064000DDFF034808BD02490248FFF7D7FFF8E77E
:10065000440400203059000808B50A4628B105496D
:100660000548FFF7CBFF034808BD02490248FFF7E2
:10067000C5FFF8E7440400202459000810B5044CD5
:100680000A4621460348FFF7B9FF204610BD00BFC8
:1006900044040020405900080B7803704B784370E5
:1006A0008B78CA7843EA022343800B794A7943EA7C
:1006B000022383808B79CA7943EA0223C38070477F
:1006C00008B5012380F89C32D0F8B83213B15B68CA
:1006D00001799847002008BD08B590F89C32032B9B
:1006E00001D0002008BDD0F8B832DB69002BF8D06B
:1006F0009847F6E790F89C32042B01D00020704711
:1007000090F89D3280F89C32F8E790F89C3280F89F
:100710009D32042380F89C32002070470174002031
:10072000704708B5D0F8B8320BB15B689847002025
:1007300008BD08B5D0F8B83213B11B68984708BD9A
:100740000320FCE718B1022803D0032070470020E3
:10075000704701207047D0F8C43211F0800F08D1E3
:1007600001F07F01C1EBC1018A00134493F8FE013F
:10077000704701F07F01C1EBC1018A00134493F877
:100780003E00704708B5D0F80404FFF799FF08BD94
:1007900008B5D0F80404FFF7ADFF08BD10B5044656
:1007A000D0F80404FFF7B1FF2268D2F8003E43F00E
:1007B0000103C2F8003E236A23B1034A136943F0E0
:1007C0000603136110BD00BF00ED00E008B5D0F8CE
:1007D0000404FFF781FF08BD002070470020014B93
:1007E00018707047440E0020D0F8BC32C3F80412D1
:1007F00000207047D0F8BC32C3F80812C3F81022AA
:100800000020704710B5074C002207492046FFF72B
:10081000F1FF06492046FFF7E7FF054B01221A705A
:10082000002010BD588E0020440600203802002011
:10083000440E002019B1C0F8C012002070470320F8
:10084000704700000A23038000487047E000002042
:100850004323038000487047EC00002043230380BB
:10086000004870479C0000204323038000487047E5
:100870005800002010B5D0F8BC42D0F8C0325BB1AF
:1008800094F80002FF2807D09B6894F801222146C3
:100890009847FF2384F80032002010BD044B082243
:1008A0009A6100BF4FF400229A6100BFF6E700BFD3
:1008B00000080240002301330C4A934211D8026918
:1008C000002AF8DA036943F00103036100230133CE
:1008D000064A934207D8026912F0010FF7D10020AF
:1008E0007047032070470320704700BF400D03008E
:1008F00010B4046C154B9C4203D9D0F8003B002B7C
:1009000016DB0024C0F8104BD0F8104B44F4002440
:10091000C0F8104BD0F8104B44F01804C0F8104B3E
:10092000D0F8104B44F0C044C0F8104B012903D05C
:1009300000205DF8044B7047C0F8142BD0F8003B42
:1009400043F08023C0F8003BF2E700BF0A30544F69
:10095000D0F8003923F4FF6323F00703C0F800390F
:1009600000F500639A6802F00602042A05D05A686E
:1009700042F480725A6000207047D0F8002942F09B
:100980000302C0F80029F2E7406900F00100704757
:1009900010B4D0F81048D0F8343801F00F02D3402A
:1009A000DB01DBB2234300EB411000F510608068EF
:1009B00018405DF8044B704700EB4111D1F8082B4B
:1009C00000F50060406910407047D0F8183800F515
:1009D0000060C069184080B27047D0F8183800F540
:1009E0000060C0691840000C70474269806910407F
:1009F0007047D0F8003823F4FE63C0F80038D0F810
:100A00000038090101F4FE610B43C0F800380020F2
:100A100070470B784A78012A0ED000EB4310D0F8CB
:100A2000003B23F40013C0F8003BCB78023BDBB261
:100A3000012B15D90020704700EB4310D0F8003986
:100A400023F40013C0F80039CB78023BDBB2012B52
:100A5000F0D8D0F8003943F08053C0F80039E9E706
:100A6000D0F8003B43F08053C0F8003BE2E70B783E
:100A70004A78012A14D000EB4310D0F8002B002A4A
:100A800006DB2BB1D0F8003B23F08043C0F8003BDD
:100A9000D0F8003B43F40013C0F8003B002070473F
:100AA00000EB4310D0F80029002A06DB2BB1D0F868
:100AB000003923F08043C0F80039D0F8003943F4FE
:100AC0000013C0F80039E9E703329208002393428B
:100AD0000CD210B400F58054246841F8044B013363
:100AE0009342F7D308465DF8044B704708467047B9
:100AF00070B49DF80C4064B903339D0807E000EB27
:100B0000023303F5805351F8046B1E600134AC428C
:100B1000F5D3002070BC704770B40B784C78012C72
:100B200026D000EB431000F530631C69E40CE404AC
:100B30001C611C6924F0FF5424F4C0141C614C692E
:100B40000CB18C684C611C6944F400241C611C6964
:100B50008D68C5F312052C431C61012A65D0D0F8BD
:100B6000003B43F00443C0F8003B002070BC7047DA
:100B70004C696CBB00EB4314D4F8105925F0FF55B9
:100B800025F4C015C4F81059D4F8105945F40025BF
:100B9000C4F81059D4F81059ED0CED04C4F81059EC
:100BA000012A33D000EB4313D3F8002942F004426A
:100BB000C3F800294B69002BD7D0D0F83428097826
:100BC00001F00F040121A1400A43C0F83428CCE70A
:100BD00000EB431404F510642569ED0CED04256168
:100BE000256925F0FF5525F4C01525614E698D68EE
:100BF000AE4200D94D61256945F40025256125697E
:100C00004E69C6F3120635432561C9E70A691AB170
:100C100000EB4311C1F8142900EB4310D0F8002970
:100C200042F00442C0F800299FE7CA68002A96D023
:100C30005A6194E7F0B583B00B784C78012C2BD037
:100C400000EB431303F530642569ED0CED042561D9
:100C5000256925F0FF5525F4C01525614D69002D46
:100C600040F0C58025698E68C6F3120635432561BC
:100C7000256945F400252561012A00F0CD80CA7858
:100C8000012A00F0CF80D3F8002B42F00442C3F8D1
:100C9000002B002003B0F0BD4C6984BB00EB431473
:100CA000D4F8105925F0FF5525F4C015C4F8105993
:100CB000D4F8105945F40025C4F81059D4F8105947
:100CC000ED0CED04C4F81059012A4CD000EB43138D
:100CD000D3F8004944F00444C3F80049CC78012C0F
:100CE0006AD04B69002BD4D0D0F83428097801F0B1
:100CF0000F040121A1400A43C0F83428C9E700EBE2
:100D00004314D4F81059ED0CED04C4F81059D4F87C
:100D1000105925F0FF5525F4C015C4F81059D4F822
:100D200010694D698F683D44013DB5FBF7F5474FAC
:100D300007EAC5453543C4F81059D4F810594E692F
:100D4000C6F312063543C4F8105904F51064CD7883
:100D5000012DB9D1256925F0C0452561256945F0EA
:100D600000552561B0E70A691AB100EB4314C4F8D5
:100D70001429CA78012A08D000EB4313D3F80029BC
:100D800042F00442C3F8002983E7D0F8082812F49F
:100D9000807F08D100EB4311D1F8002942F00052C6
:100DA000C1F80029E8E700EB4311D1F8002942F02F
:100DB0008052C1F80029DFE7D0F8084814F4807F9A
:100DC0000ED1D3F8004944F00054C3F8004914464A
:100DD0000B46C9681A789B8A0094FFF789FE58E78A
:100DE000D3F8004944F08054C3F80049EFE78E6817
:100DF0003544013DB5FBF6F52669144F07EAC547B2
:100E00003E43266127698E68ADB206FB05F5C5F342
:100E100012053D4325612FE7CA68002A3FF42FAF32
:100E200062612CE7D0F8082812F4807F06D1D3F84D
:100E3000002B42F00052C3F8002B24E7D3F8002B1C
:100E400042F08052C3F8002B1DE700BF0000F81FDE
:100E500070B40B784A78012A1FD0D0F83C5803F0C0
:100E60000F06012404FA06F625EA0645C0F83C58A8
:100E7000D0F81C58097801F00F018C4025EA044491
:100E8000C0F81C4800EB4310D0F8002B124B134065
:100E9000C0F8003B002070BC7047D0F83C6803F0FD
:100EA0000F0402FA04F4A4B226EA0404C0F83C4891
:100EB000D0F81C48097801F00F018A4092B224EA68
:100EC0000202C0F81C2800EB4310D0F80039034A96
:100ED0001A40C0F80029DDE70078F3EF007833EC22
:100EE00070B40B784A78012A22D0D0F81C2803F07D
:100EF0000F060124B44042EA0442C0F81C2800EB6B
:100F00004310D0F8003B13F4004F0ED1D0F8003B53
:100F10008A68C2F30A02C97842EA8142134343F065
:100F2000805343F40043C0F8003B002070BC70477E
:100F3000D0F81C4803F00F06B24092B22243C0F82A
:100F40001C2800EB4310D0F8002912F4004FECD11C
:100F5000D0F800298C68C4F30A04C97844EA8144B3
:100F600044EA8353134343F0805343F40043C0F8EF
:100F70000039DAE7D0F8083813F0060307D0022B5F
:100F800007D0062B01D00F207047022070470020A9
:100F9000704702207047D0F800381943C0F8001895
:100FA000002070471023036100230133054A934258
:100FB00005D8026912F0100FF7D100207047032006
:100FC000704700BF400D0300890141F0200101611D
:100FD00000230133054A934205D8026912F0200F1D
:100FE000F7D1002070470320704700BF400D030079
:100FF00084B02DE9F041044607A880E80E0025469C
:10100000002306E003F1400204EB8202002151605C
:1010100001330E2BF6D9119BF3B9A36B43F40013E4
:10102000A363A36B23F40023A363A36B23F48023A4
:10103000A3630023C4F8003E04F50066D4F800382A
:10104000C4F800380C9B012B14D1099B6BB900210B
:101050002046FFF7A0FF11E0236823F4001323606C
:10106000A36B43F40023A363E3E701212046FFF7CA
:1010700092FF03E003212046FFF78DFF1021204659
:10108000FFF7A2FF804608B14FF001082046FFF7A6
:1010900089FF08B14FF00108002333617361F361E8
:1010A0000AE0C3B94FF00060C2F8000900220A61EB
:1010B0004FF67F328A6001330799994210D905EBC8
:1010C000431202F51061D2F800090028E9DB002084
:1010D000C2F80009EAE74FF09040C2F80009E5E7DE
:1010E00000230AE0BBB14FF09047C2F8007B00221A
:1010F00002614FF67F3282600133994210D905EBCD
:10110000431202F53060D2F8007B002FEADB0027A3
:10111000C2F8007BEBE74FF00067C2F8007BE6E720
:10112000336923F4807333610A9B012B1BD00022A7
:10113000A2616FF0804262611BB9A36943F01003A2
:10114000A361A269104B1343A3610D9B1BB1A3695B
:1011500043F00803A361119B012B0DD04046BDE86D
:10116000F04104B07047094A3263326B42F4803276
:1011700042F003023263DAE7A36943F0804343F0AD
:101180000403A361EAE700BF00383C80000180004F
:10119000836823F00103836000207047836843F075
:1011A0000103836000207047022A0AD00921C26827
:1011B00022F47052C260C36843EA8123C3600020F6
:1011C00070472A4B0B442A4A93423FD9294B0B4480
:1011D000294A93423CD9A1F57403A3F51053274A39
:1011E000934237D9A1F18373A3F5E74302F5C332E4
:1011F000A032934230D9224B0B44224A93422DD93C
:10120000214B0B4402F5922202F57872934227D9C2
:101210001E4B0B4402F5C32202F52072934221D9E2
:10122000A1F1B773A3F5585302F5B71202F558723E
:10123000934219D9164B0B4402F5122202F5F862BB
:10124000934201D90621B2E70721B0E70F21AEE7AB
:101250000E21ACE70D21AAE70C21A8E70B21A6E798
:101260000A21A4E70921A2E70821A0E7405327FFAC
:10127000FF340C00401E1BFF3F420F007F4F120047
:1012800060B6E5FE5FE3160000D3CEFEC05BB3FEA2
:10129000E05459FE84B010B5044603A880E80E005F
:1012A000089B012B1FD1A36B23F48033A363E36856
:1012B00023F4840323F04003E360E36823F4401342
:1012C000E3600F9B012B09D02046FFF7F3FA069B42
:1012D000012B1BD0BDE8104004B07047E36843F415
:1012E0008013E360F0E7E36843F04003E3602046E7
:1012F000FFF7E0FA0C9B23B9A36B43F48033A3639D
:10130000E5E7A36B23F48033A363E0E7A36843F02E
:101310000603A360A36843F02003A360DAE710B4D8
:1013200001F01F01042303FA01F4036A23EA040312
:101330000362036A8A40134303625DF8044B7047FB
:1013400090F83C30012B1CD070B4012680F83C6032
:10135000022380F83D3002685568936825F07005D7
:101360000C682C4323F080054B682B4354600268C3
:10137000936080F83D60002380F83C30184670BCD4
:1013800070470220704710B5044604220068FFF73A
:10139000C6FF2268536C43F4004353642268936889
:1013A00003F00703062B03D0136843F00103136017
:1013B000002010BD10B4846824F47F4442EA032363
:1013C0000B43234383605DF8044B7047836823F02D
:1013D0007003194341F007018160704710B4036A3C
:1013E00023F0100303628469036A24F4704444EA1E
:1013F000023223F0A00343EA0113826103625DF825
:10140000044B704710B4036A046A24F001040462B8
:10141000846924F0F00444EA021223F00A030B4327
:10142000826103625DF8044B7047000030B4036AC8
:1014300023F480530362036A4468C26922F4E642DB
:101440000D6842EA052223F400538D6843EA053310
:10145000094DA84203D005F58065A84204D124F4C3
:1014600080444D6944EA85144460C2614A6802645C
:10147000036230BC704700BF0000014030B4036A13
:1014800023F480730362036A4268C46924F073041E
:101490000D682C4323F400738D6843EA0523124D35
:1014A000A84203D005F58065A84206D123F4006365
:1014B000CD6843EA052323F480630B4DA84203D093
:1014C00005F58065A84207D122F440524D6942EAF1
:1014D00005128D6942EA05124260C4614A68C2631E
:1014E000036230BC704700BF0000014030B4036AA3
:1014F00023F010030362036A4468826922F4E6421F
:101500000D6842EA052223F020038D6843EA0513A3
:10151000114DA84203D005F58065A84206D123F0FD
:101520008003CD6843EA051323F040030A4DA84227
:1015300003D005F58065A84207D124F440644D69C5
:1015400044EA85048D6944EA8504446082614A68FE
:101550008263036230BC70470000014030B4036A0C
:1015600023F001030362056A4268846924F073046E
:101570000B681C4325F002058B682B43104DA842D5
:1015800003D005F58065A84205D123F00803CD6896
:101590002B4323F004030A4DA84203D005F58065D0
:1015A000A84205D122F440724D6915438A692A4345
:1015B000426084614A684263036230BC704700BF86
:1015C000000001400368304A904212D0B0F1804FD1
:1015D0000FD0A2F57C4290420BD002F5806290427F
:1015E00007D002F58062904203D002F57842904223
:1015F00003D123F070034A681343234A90422AD050
:10160000B0F1804F27D0A2F57C42904223D002F562
:10161000806290421FD002F5806290421BD002F59A
:101620007842904217D002F57052904213D002F5E2
:10163000806290420FD002F5806290420BD0A2F5FA
:101640009832904207D002F58062904203D002F5B2
:101650008062904203D123F44073CA68134323F09D
:1016600080034A69134303608B68C3620B6883621B
:10167000054B984203D003F58063984201D10B6972
:1016800003630123436170470000014090F83C3040
:10169000012B66D010B50446012380F83C300223AC
:1016A00080F83D300268936823F47F4323F077038A
:1016B00093600B68402B4AD013D9602B3DD01ED9C4
:1016C000702B28D0B3F5005F30D1CB684A688968A9
:1016D0000068FFF76FFE2268936843F480439360CD
:1016E00024E0102B06D004D9202B03D0302B01D0BE
:1016F0001CE0DBB919462068FFF768FE16E0502BA6
:1017000014D1CA6849680068FFF77CFE5021206840
:10171000FFF75CFE0AE0CB684A6889680068FFF75B
:1017200049FE2268936843F077039360012384F8AD
:101730003D30002084F83C0010BDCA68496800684C
:10174000FFF74CFE60212068FFF740FEEEE7CA6815
:1017500049680068FFF756FE40212068FFF736FE13
:10176000E4E70220704790F83C30012B28D010B5F8
:101770000446012380F83C30022380F83D300C2AD7
:101780000BD8DFE802F0070A0A0A110A0A0A150A4A
:101790000A0A19000068FFF7E1FE012384F83D30D2
:1017A000002084F83C0010BD0068FFF79FFEF4E7BE
:1017B0000068FFF763FEF0E70068FFF737FEECE72D
:1017C0000220704798B110B5044690F83D305BB1E7
:1017D000022384F83D30211D2068FFF7F3FE01232A
:1017E00084F83D30002010BD80F83C30F0E7012047
:1017F00070470268D36843F00103D36002689368BE
:1018000003F00703062B03D0136843F001031360B2
:1018100000207047044BDB6813F0800F00D1704745
:10182000024B80221A70FAE7003802400E3802405C
:10183000014B1868704700BF1C00002008B5FFF777
:10184000F7FF044B9B68C3F34233034AD35CD84091
:1018500008BD00BF003802401C59000808B5FFF75A
:10186000E7FF044B9B68C3F38223034AD35CD84051
:1018700008BD00BF003802401C5900082DE9F041A6
:1018800004460268136923F44053C1680B43136193
:1018900083680269134342691343C2691A430168AA
:1018A000CB6823F4164323F00C031343CB60026888
:1018B000536923F4407381690B435361C369B3F5E2
:1018C000004F4FD00368964A934200F0E18002F542
:1018D0008062934200F0DC80FFF7C0FF192505FB12
:1018E00000F660688000B6FBF0F66427B6FBF7F6FA
:1018F0003601FFF7B3FF05FB00F062689200B0FB12
:10190000F2F8FFF7ABFF05FB00F360688000B3FB64
:10191000F0F3B3FBF7F307FB13831B013233B3FB85
:10192000F7F303F0F0031E44FFF798FF05FB00F008
:1019300062689200B0FBF2F8FFF790FF226805FBA7
:1019400000F360688000B3FBF0F3B3FBF7F307FB31
:1019500013831B013233B3FBF7F303F00F0333445C
:101960009360DAE003686E4A93424AD002F58062DF
:10197000934246D0FFF772FF192505FB00F6636816
:101980005B00B6FBF3F66427B6FBF7F63601FFF70C
:1019900065FF05FB00F062685200B0FBF2F8FFF74C
:1019A0005DFF05FB00F362685200B3FBF2F3B3FB8B
:1019B000F7F307FB1383DB003233B3FBF7F35B0072
:1019C00003F4F8731E44FFF749FF05FB00F062685B
:1019D0005200B0FBF2F8FFF741FF226805FB00F36D
:1019E00060684000B3FBF0F3B3FBF7F307FB13832E
:1019F000DB003233B3FBF7F303F0070333449360A8
:101A00008BE0FFF71BFF192505FB00F663685B0001
:101A1000B6FBF3F66427B6FBF7F63601FFF70EFFC9
:101A200005FB00F062685200B0FBF2F8FFF706FF1A
:101A300005FB00F362685200B3FBF2F3B3FBF7F36C
:101A400007FB1383DB003233B3FBF7F35B0003F4D4
:101A5000F8731E44FFF7F2FE05FB00F062685200C7
:101A6000B0FBF2F8FFF7EAFE226805FB00F36068BE
:101A70004000B3FBF0F3B3FBF7F307FB1383DB008A
:101A80003233B3FBF7F303F007033344936044E0CE
:101A9000FFF7D4FE192505FB00F660688000B6FB51
:101AA000F0F66427B6FBF7F63601FFF7C7FE05FB35
:101AB00000F062689200B0FBF2F8FFF7BFFE05FB92
:101AC00000F360688000B3FBF0F3B3FBF7F307FBB0
:101AD00013831B013233B3FBF7F303F0F0031E440F
:101AE000FFF7ACFE05FB00F062689200B0FBF2F875
:101AF000FFF7A4FE226805FB00F360688000B3FBDB
:101B0000F0F3B3FBF7F307FB13831B013233B3FB93
:101B1000F7F303F00F0333449360BDE8F08100BF97
:101B20000010014048B310B5044690F839300BB3AB
:101B3000242384F839302268D36823F40053D36017
:101B40002046FFF79BFE2268136923F4904313613C
:101B50002268536923F02A0353612268D36843F44F
:101B60000053D3600020E063202384F8393084F8E8
:101B70003A3010BD80F83830DAE7012070470000B5
:101B800008B5174B9B6803F00C03082B25D1144BA9
:101B90005A6802F03F025B6813F4800F12D0104BBA
:101BA0005968C1F3881100230E48A1FB0001FEF71C
:101BB0005FFB0B4B5B68C3F3014301335B00B0FB7E
:101BC000F3F008BD064B5968C1F38811002305489E
:101BD000A1FB0001FEF74CFBEBE70248F1E700BF79
:101BE000003802400024F400014B01221A607047C3
:101BF0004C004742036859620020704730B40468C3
:101C0000606A29B10D46A36A00EB134000230CE083
:101C100040EA0240A06212E003F1400104EB8101BE
:101C2000496800EB11400133DBB2691E8B42F3D3EC
:101C300040EA024005F13F0104EB810148600020C9
:101C400030BC70472DE9F04782B0D0F80080CA0060
:101C5000521A930003445A6D1B6D9A4255D8C146DF
:101C60009B1AC1EBC104A2000244526C9A4200D3F9
:101C70001A460C46074602F1030A4FEA9A0A15E093
:101C800006F1030A4FEA9A0AE3001B1B9D003D443C
:101C9000A96C3B7C0093B3B2E2B24046FEF728FF4A
:101CA000AB6C3344AB646B6D1E446E6509EB44133F
:101CB00003F510639B699BB2534512D3E3001B1BD2
:101CC0009A003A44516D136D99420AD24BB15B1A96
:101CD000C4EBC4018A003A44566C9E42D0D31E46DF
:101CE000CEE7E3001B1B980007443A6D7B6D9A42D8
:101CF0000FD804F00F040121A140D8F8344824EA99
:101D00000104C8F83448002000E0012002B0BDE81A
:101D1000F0870020FAE710B501F00F0443689C42F9
:101D20002CD811F0800F1DD1E3001A1B91000A4638
:101D300001F5FC71014404310244002382F8FD31B5
:101D400000238B700C7090F8BC33012B18D0044624
:101D5000012380F8BC330068FEF75BFE002084F8A6
:101D6000BC030CE0E3001A1B91000A463831014421
:101D700004310244012382F83D30E1E7012010BD27
:101D80000220FCE708B5D0F8C402FFF7C4FFFEF755
:101D9000D9FC08BD38B501F00F0543689D4236D81F
:101DA00011F0800F20D1CA00541AA3001C4603F57D
:101DB000FC730344043322460244002182F8FD11DF
:101DC00001229A701D7090F8BC23012A21D004468C
:101DD000012280F8BC2319460068FEF748FE7DB159
:101DE000002084F8BC0313E0EA00511B8B00194665
:101DF0003833034404330144012281F83D20DFE7F6
:101E000004F57172217C2068FEF772FDE8E701207D
:101E100038BD0220FCE708B5D0F8C402FFF7BAFFCE
:101E2000FEF790FC08BD10B504468021FFF7F3FFD4
:101E300000212046FFF7EFFF10BD70B501F00F0540
:101E4000EE00711B8C0038340444211D761BB40055
:101E50000444A264236500236365012384F83D30B4
:101E600084F83C500369012B06D05DB1DAB20068FA
:101E7000FEF7E0FE002070BDC5EBC506B4000444CB
:101E8000E264F2E7DAB20068FEF746FEF2E708B570
:101E9000D0F8C402FFF7D1FFFEF754FC08BD08B527
:101EA0000423C0F8943200231A461946FFF7EFFFC7
:101EB000002008BD08B590F89C32013B022B09D8E0
:101EC0004B88012B00D008BD0023C0F8A432FFF7D7
:101ED000E6FFF8E7FFF7A7FFF5E708B54B88012B0A
:101EE00000D008BDC0F8A432FFF7D9FFF9E7000021
:101EF00070B504460D4689782E4B197001290FD80C
:101F000090F89C32022B11D0032B25D02946FFF7E5
:101F10008AFF284B19782046FEF703FC032603E0CE
:101F20002946FFF780FF0326304670BD81B141602E
:101F3000FEF7FFFB064620B129462046FFF773FF58
:101F4000F2E72046FFF7ABFF032384F89C32EBE770
:101F5000FFF7A5FF0026E7E7C9B14368994225D0FE
:101F6000D9B2FEF7DEFB134B197861602046FEF70D
:101F7000E0FB0646B0B129462046FFF754FF217921
:101F80002046FEF7CEFB022384F89C32CCE70223E6
:101F900080F89C324160FEF7C4FB2046FFF77FFFCC
:101FA0000026C1E72046FFF77AFFBDE7FFF777FF7E
:101FB0000026B9E74C8E002070B505460C460B781C
:101FC00003F06003202B07D0402B05D023B1FFF78F
:101FD0002AFF0026304670BD95F89C32013B022B4B
:101FE00018D82379012B0FD8D5F8B8329B68214631
:101FF000284698470646E388002BEBD10028E9D114
:102000002846FFF74CFFE5E721462846FFF70BFF80
:102010000026DFE721462846FFF705FF0026D9E71F
:1020200008B513460A460021FFF731FF002008BD1E
:1020300010B513460222C0F894228361C3610A4698
:102040000021FFF724FF002010BD08B590F89C3256
:10205000013B022B12D8CB88022B0CD10123C36089
:10206000D0F8A4320BB10323C360022200F10C01AB
:10207000FFF7DEFF08BDFFF7D6FEFBE7FFF7D3FE55
:10208000F8E708B5CB88012B0BD190F89C329BB1B7
:10209000022B09D9032B0FD10122011DFFF7C8FF25
:1020A00001E0FFF7C0FE08BD0146002341F8083FEC
:1020B0000122FFF7BDFFF6E7FFF7B5FEF3E730B506
:1020C00083B004460D460023ADF806304A88130A53
:1020D000013B062B00F2AB80DFE803F0041F33A9BD
:1020E000A98D9A00D0F8B4321B680DF10601007C6E
:1020F0009847EA88002A00F0A380BDF80630002B3C
:1021000000F099809A4228BF1A46ADF80620014691
:102110002046FFF78DFF03B030BD037C43B9D0F8F4
:10212000B8329B6A0DF10600984702234370E0E73E
:10213000D0F8B832DB6A0DF10600984702234370ED
:10214000D7E7D2B2052A52D8DFE802F003101D2AE1
:102150003744D0F8B4325B6823B10DF10601007C3E
:102160009847C6E72946FFF75EFED4E7D0F8B432B9
:102170009B6823B10DF10601007C9847B9E7294619
:10218000FFF751FEC7E7D0F8B432DB6823B10DF199
:102190000601007C9847ACE72946FFF744FEBAE702
:1021A000D0F8B4321B6923B10DF10601007C9847C9
:1021B0009FE72946FFF737FEADE7D0F8B4325B69F9
:1021C00023B10DF10601007C984792E72946FFF7FD
:1021D0002AFEA0E7D0F8B4329B6923B10DF10601C5
:1021E000007C984785E72946FFF71DFE93E72946BF
:1021F000FFF719FE8FE7037C33B9D0F8B8325B6B79
:102200000DF10600984774E72946FFF70CFE82E7B8
:10221000037C43B9D0F8B8321B6B0DF10600984728
:102220000723437065E72946FFF7FDFD73E729465D
:10223000FFF7F9FD6FE729462046FFF7F4FD6AE74F
:102240002046FFF72CFE66E738B505460C468A881F
:102250000B7803F06003202B08D0D1B2402B05D0BF
:102260005BB12146FFF7DFFD002005E0D5F8B8326D
:102270009B6821462846984738BD6378012B2FD0AC
:10228000002B5ED0032B40F0D98090F89C32022BBB
:1022900006D0032B15D02146FFF7C5FD0020EBE744
:1022A00009B1802905D121462846FFF7BCFD002051
:1022B000E2E7FFF7B0FD80212846FFF7ACFD0020E4
:1022C000DAE7638823B919B1802901D0E38823B103
:1022D0002846FFF7E4FD0020CEE7FFF79CFDF7E777
:1022E00090F89C32022B06D0032B15D02146FFF725
:1022F0009AFD0020C0E709B1802905D12146284672
:10230000FFF791FD0020B7E7FFF785FD8021284604
:10231000FFF781FD0020AFE76388002B40F093803A
:1023200011F07F0F0AD12846FFF7B9FDD5F8B83272
:102330009B6821462846984700209DE7FFF722FD2D
:10234000F1E790F89C32022B06D0032B2AD02146CD
:10235000FFF769FD00208FE709B1802913D112F042
:10236000800F15D101F07F0101EB81018B0003F596
:10237000A8712944043100240C6002222846FFF78A
:1023800057FE204678E72146FFF74DFD002073E712
:1023900001F07F0101EB81018B0003F11001294461
:1023A0000431E8E752B2002A1FDB01F00F0303EB10
:1023B000830398002844B0F864312BB3002A29DB4A
:1023C00001F07F0202EB8202930003F5A8742C4413
:1023D000043409B1802927D1002323600222214639
:1023E0002846FFF725FE002046E701F00F0303EB28
:1023F000830398002844838C002BDFD12146284694
:10240000FFF711FD002037E721462846FFF70BFDB7
:10241000002031E701F07F0202EB8202930003F11A
:1024200010042C440434D4E72846FEF794F910B184
:1024300001232360D2E700232360CFE72146FFF783
:10244000F2FC002018E7002016E7D0F8BC22A2B169
:1024500008B5D2F814320BB1012008BD0123C2F82F
:102460001432D2F81032C362D2F81032D2F80822F5
:102470008121FFF70CFD0020EFE7032070470000EB
:10248000F8B507460E46402914D80A46124BD3F831
:10249000BC12D1F81432002BFBD10F4C3946204628
:1024A000FEF7A8F92046FFF7D0FF90B93046F8BDF7
:1024B0002618FBE70024B442F8DA351B402D28BF6C
:1024C000402529463819FFF7DBFF8542F0D101345A
:1024D000F1E70026EAE700BF588E002070B5D0F87B
:1024E000C442D0F8BC5255B301EB810293000344BF
:1024F0009B696BB90024C5F81442D0F8C0321B693F
:102500000A4605F50471D5F808029847204670BDC3
:10251000C1EBC106B2001444646CB3FBF4F204FBDB
:102520001233002BE6D101EB810293000344002417
:102530009C6123462246FFF7AAFC2046E7E70320DA
:10254000E5E701F00F01C1EBC1018B001844D0F8A1
:102550001402704708B5D0F8C402FFF7F2FF08BDB7
:1025600038B5D0F8BC5275B10446FFF7F3FFC5F893
:102570000C02D4F8C032DB6805F50371D5F804020B
:102580009847002038BD0320FCE770B501F00F0527
:10259000EE00711B8C0004F5FC740444211D761BB5
:1025A000B4000444C4F80822C4F810320023C4F86C
:1025B000143284F8FD3184F8FC510369012B06D0F4
:1025C00065B1DAB20068FEF735FB002070BDC5EBDF
:1025D000C506B4000444C4F80C22F1E7DAB200687E
:1025E000FEF79AFAF1E708B5D0F8C402FFF7CDFF7D
:1025F000FEF7A8F808BD08B50523C0F894320023FB
:102600001A461946FFF7EFFF002008BD08B513462C
:102610000A460021FFF7E7FF002008BD10B5044679
:1026200029BB1346D0F89422032A01D0002029E0C8
:10263000D0F85C11D0F8602191420DD8D0F8B832B2
:102640001B6923B190F89C22032A00D198472046A9
:10265000FFF725FC002015E0891AC0F85C118A42BA
:1026600028BF0A461946FFF7D1FF00200AE00A46B4
:10267000D0F8B8329B6933B190F89C12032904D189
:102680001146984710BD0320FCE70320FAE708B580
:10269000C1EBC10293000344D3F80822D0F804042C
:1026A000FFF7BCFF08BD10B513460322C0F8942203
:1026B000C0F85831C0F85C310A460021FFF793FF9B
:1026C000002010BD70B582B005460C46D0F8BC6243
:1026D00000238DF80730ADF804300B7813F060025A
:1026E00027D0202A5BD1CA883AB9D0F8C0329B687B
:1026F000002248789847002054E013F0800F0CD057
:10270000D0F8C0329B68314660789847E2883146FD
:102710002846FFF78DFC002044E04B7886F8003215
:102720008B7986F80132CA883146FFF7BCFF00205A
:1027300038E04B780B2B2ED8DFE803F006362D2D32
:102740002D2D2D2D2D2D142390F89C32032B05D1EA
:10275000022201A9FFF76CFC002023E0FFF763FBD6
:1027600003201FE090F89C32032B06D101220DF1CB
:102770000701FFF75DFC002014E0FFF754FB032086
:1027800010E090F89C32032B01D100200AE0FFF703
:102790004AFB032006E0FFF746FB032002E0FFF7B9
:1027A00042FB032002B070BD0020FBE710B50446D9
:1027B000002946D11346D0F89422022A05D094F875
:1027C000A032012B39D0002046E0C269016A8A425A
:1027D00013D88A421DD0D4F8B832DB682BB194F8F4
:1027E0009C22032A01D12046984780212046FFF7EA
:1027F00012FB2046FFF7FFFEE1E7521AC2611946BD
:10280000FFF70EFC00231A4619462046FFF7EBFEA1
:10281000D5E783699942DED8D0F898229342DAD27C
:1028200000221146FFF7FCFB0021C4F898120B466A
:102830000A462046FFF7D7FEC1E7002084F8A00231
:102840000AE00A46D0F8B8325B6933B190F89C12BE
:10285000032904D11146984710BD0320FCE703204B
:10286000FAE708B5C1EBC102930003449A6CD0F8B3
:102870000404FFF79BFF08BDD0F8BC229AB108B54D
:10288000037C3BB14023D2F804220121FFF7ABFEC9
:10289000002008BD4FF40073D2F804220121FFF795
:1028A000A2FE0020F5E70320704738B511F0800F35
:1028B00021D101F00F05EA00541BA3001C4603F5CB
:1028C000FC730344043325460544002285F8FD21AA
:1028D00001F00F01197090F8BC23012A1AD00446A8
:1028E000012280F8BC2319460068FEF7B1FA0020E7
:1028F00084F8BC0338BD01F00F04E200151BAB00E7
:102900001D463833034404332C460444012284F822
:102910003D20DDE70220EDE708B5D0F8C402FFF75F
:10292000C4FFFDF70FFF08BDF8B511F0800F28D1E7
:1029300001F00F06F500AF1BBC00274604F5FC7440
:10294000044404343E460644002586F8FD5101F057
:102950000F012170A260E370627802B1E180022B66
:102960001ED090F8BC33012B1DD00546012380F802
:10297000BC3321460068FEF7B3FA002085F8BC039B
:10298000F8BD01F00F06F500AF1BBC002746383438
:10299000044404343E460644012586F83D50D6E7FB
:1029A00000232371DDE70220EAE710B51C46134639
:1029B0002246D0F8C402FFF7B7FFFDF7C3FE10BDF3
:1029C00070B50446012380F89C320023C0F894328D
:1029D0004360C0F8A432D0F8BC3223B1D0F8B8328A
:1029E0005B68002198474023002211462046FFF7EC
:1029F000DCFF0126A4F864614025C4F860512B4631
:102A0000002280212046FFF7D0FFA6842562002007
:102A100070BD10B50446C3681BB1022B0BD0FDF787
:102A20003DFF0021D4F80404FDF778FED4F8040437
:102A3000FFF7C6FF10BD0121F4E790F8BC33012B6E
:102A40000DD010B50446012380F8BC3380F838104F
:102A50000068FDF7CEFF002084F8BC0310BD022003
:102A6000704708B5D0F8C402FFF7E7FFFDF76AFE2C
:102A700008BD38B504468B88F3B9CB88E3B94B88D9
:102A80007F2B19D803F07F0590F89C32032B0CD0D4
:102A900080F89E522946FFF7E4FF2046FFF7FFF932
:102AA00035B1022384F89C3209E0FFF7BCF906E057
:102AB000012384F89C3202E02046FFF7B4F938BDC8
:102AC00008B50B7803F06003202B06D0402B04D010
:102AD00043B1FFF7A8F9002003E0D0F8B8329B68B3
:102AE000984708BD4B78092B21D8DFE803F0141C68
:102AF000201820090520100DFFF7E1FA0020F0E76B
:102B0000FFF7B7FF0020ECE7FFF7F2F9E9E7FFF77F
:102B1000B8FA0020E5E7FFF798FA0020E1E7FFF7B1
:102B2000DCF90020DDE7FFF7C5F90020D9E7FFF762
:102B30007AF90020D5E738B5044600F2AA252846E0
:102B4000FDF7AAFD0123C4F89432B4F8B032C4F8FA
:102B5000983294F8AA1201F01F03012B0DD03BB15B
:102B6000022B0FD001F080012046FFF754F903E05B
:102B700029462046FFF7A4FF38BD29462046FFF727
:102B80001BFAF9E729462046FFF75EFBF4E708B594
:102B900000F57171D0F80404FFF7CDFF08BD000007
:102BA00038B5044603681D6C03EB411101F5306133
:102BB0008A680369012B0DD0124B9D4214D0204628
:102BC000FFF7E5FF104B9D4202D92369012B12D07C
:102BD000002038BD0C4B9D42F1D912F4004FEED0CD
:102BE0004FF400438B60EAE712F4004FE7D04FF454
:102BF00000438B60E3E704F5717201212068FDF763
:102C000077FEE5E70A31544F0A30544F70B5054658
:102C10000E460368196C03EB461303F53064A36892
:102C20000269012A0FD0354A914261D113F4004F55
:102C30005AD113F0200F01D02023A360F1B228460F
:102C4000FFF725FD57E013F0080F14D02C4A9142EE
:102C500005D913F4004F02D04FF40043A360284677
:102C6000FFF795FF05F5717201212868FDF740FE19
:102C70000823A3603FE013F0200F2ED113F0280F9C
:102C800039D11F4A914202D913F4004F28D1F200E2
:102C9000921B93002B44D3F804222169C1F3120143
:102CA000521AC3F81422D3F80412D3F808220A44A3
:102CB000C3F80822F1B22846FFF7E9FCDEB9C6EBFB
:102CC000C606B3002B44D3F81032A3B905F57172D0
:102CD00001212868FDF70CFE0DE02023A3600AE027
:102CE0004FF40043A36006E04FF40043A36002E00A
:102CF000F1B2FFF7CCFC002070BD00BF0A31544F89
:102D00000A30544F2DE9F84F044605682846FDF770
:102D10003BFE08B1BDE8F88F2F4606462068FDF758
:102D200064FE0028F6D02068FDF75FFE10F0020F69
:102D300004D02268536903F0020353612068FDF751
:102D400054FE10F4002F74D12068FDF74EFE10F4ED
:102D5000802F40F0C2802068FDF747FE0028C0F2B7
:102D600034812068FDF741FE10F4006F0AD0D5F8D9
:102D7000083813F0010F40F03F812268536903F4D3
:102D8000006353612068FDF730FE10F4805F40F06F
:102D900037812068FDF729FE10F4005F40F08A813A
:102DA0002068FDF722FE10F0100F14D022689369FE
:102DB00023F0100393612E6A06F00F07C6F3434316
:102DC000022B00F09081062B00F0AE8122689369FF
:102DD00043F0100393612068FDF707FE10F0080F21
:102DE00040F0B7812068FDF700FE10F4801F40F02E
:102DF000B9812068FDF7F9FD10F4001F40F0B8819B
:102E00002068FDF7F2FD10F0804F40F0B781206898
:102E1000FDF7EBFD10F0040F3FF47CAF23685D6815
:102E200015F0040F40F0B081226853682B435360C3
:102E300070E72068FDF7D1FD8046B14625E007EB3D
:102E400049130122C3F8082B49462046FFF7DEFE4E
:102E50002BE049462046FFF7A3FE07EB4913082263
:102E6000C3F8082B24E007EB49132022C3F8082BF2
:102E70001AF4005F05D007EB49134FF40052C3F872
:102E8000082B09F101094FEA5808B8F1000F3FF487
:102E90005BAF18F0010FF4D05FFA89F12068FDF7FD
:102EA0008BFD824610F0010FC9D11AF0080FD0D166
:102EB0001AF0100F04D007EB49131022C3F8082BA7
:102EC0001AF0200FD4D02369012BCCD104F57172F4
:102ED00001212068FDF70CFDC5E72068FDF775FDB1
:102EE0008046B14631E04FEAC902A2EB09029300E5
:102EF0002344596C9A6C0A449A6449E01AF0080F0A
:102F000004D007EB49130822C3F808291AF0100F60
:102F100004D007EB49131022C3F808291AF0400F18
:102F200004D007EB49134022C3F808291AF0020F16
:102F300004D007EB49130222C3F808291AF0800FC6
:102F40003ED109F101094FEA5808B8F1000F3FF4EA
:102F500002AF18F0010FF4D05FFA89FB59462068E0
:102F6000FDF716FD824610F0010FC7D009F00F03E0
:102F7000012101FA03F2D7F8343823EA0203C7F833
:102F8000343807EB4913C3F8081923698B42AAD0D8
:102F900059462046FFF765FC2369012BAED1B9F1F4
:102FA000000FABD1C9EBC902930023441B6D002B6A
:102FB000A4D104F5717201212068FDF799FC9DE709
:102FC00049462046FEF73EFEBBE7D5F8043823F01D
:102FD0000103C5F8043894F8F433012B08D02046D7
:102FE000FDF7D6FB2268536903F000435361B8E64E
:102FF000002384F8F433F5E72046FDF7CFFBBCE669
:1030000005F50068D8F8043023F00103C8F804304F
:1030100010212068FDF7D8FF14E007EB46134FF6A8
:103020007F31C3F80819D3F8002922F40012C3F83D
:103030000029C3F8081BD3F8002B22F40012C3F8B0
:10304000002B01366368B342E7D8D8F81C3043F050
:103050000113C8F81C30236BEBB1D8F8843043F06F
:103060000B03C8F88430D8F8443043F00B03C8F899
:103070004430D5F8003823F4FE63C5F8003804F571
:103080007172217C2068FDF733FC2268536903F4D8
:10309000805353617DE6D8F8143043F4005343F075
:1030A0002B03C8F81430D8F8103043F00B03C8F8DD
:1030B0001030DEE72068FDF74BFC2068FDF75AFF73
:1030C0000646E0602768FEF7B3FBF2B201463846D9
:1030D000FEF76AF82046FFF79CFC2268536903F468
:1030E000005353615CE647F6F0731E423FF46EAE48
:1030F0004FEAC708A8EB07034FEA8309A144360942
:10310000C6F30A02D9F808122846FDF7DDFCD9F803
:103110000832C6F30A063344C9F80832D9F8143223
:103120001E44C9F8146251E6082204F5717128465C
:10313000FDF7CAFCFB00D91B8A0011462244D2F8D5
:103140001422C6F30A160B4623441644C3F814622D
:103150003CE62046FDF73AFB2268536903F008037A
:1031600053613FE62268536903F48013536140E6DC
:103170002268536903F40013536141E622685369DE
:1031800003F08043536142E62046FDF7FBFA4BE62D
:1031900000230F2B00F2D780F0B482B039E0072271
:1031A00000E00022B2403A430234674E46F8242041
:1031B000664A1468EA4302EA04064F6817F4803F3F
:1031C00001D045EA0406614C2660646802EA040600
:1031D0004F6817F4003F01D045EA04065B4C666077
:1031E000A46802EA04064F6817F4801F01D045EA7C
:1031F0000406564CA660E46822404E6816F4001F90
:1032000001D045EA0402514CE26001330F2B00F279
:10321000978001229A400C6804EA0205AA42F4D180
:103220004C68022C01D0122C10D1DE08083650F860
:1032300026C003F00704A7000F24BC402CEA040CAE
:103240000C69BC4044EA0C0440F8264004685F0066
:103250000326BE40F64306EA040C4C6804F003045F
:10326000BC4044EA0C0404604C6804F1FF3CBCF12F
:10327000010F03D9112C01D0122C10D1846806EA59
:10328000040CCC68BC4044EA0C048460446824EA22
:1032900002024C68C4F300149C4014434460C268AA
:1032A00016408A68BA403243C2604A6812F0805FB2
:1032B000ABD000220192264A546C44F480445464FA
:1032C000526C02F480420192019A9C08A61C1E4A8C
:1032D00052F8267003F0030296000F22B24027EA4C
:1032E00002071C4A90423FF45CAF02F580629042B4
:1032F0001AD002F58062904218D002F580629042A6
:1033000016D002F58062904214D002F5806290429D
:1033100012D002F58062904210D002F58062904295
:103320003FF43DAF08223DE701223BE7022239E7A7
:10333000032237E7042235E7052233E7062231E787
:1033400002B0F0BC7047704700380140003C0140BB
:10335000003802400000024000B587B0002301930E
:10336000029303930493059302680F4B9A4202D091
:1033700007B05DF804FB002300930C4B1A6B42F07E
:1033800002021A631B6B03F002030093009B0323EA
:10339000019302220292012303930492059301A94F
:1033A0000348FFF7F5FEE3E7000001400038024064
:1033B0000004024030B587B000240094154B1A6C0D
:1033C00042F400321A641B6C03F400330093009B38
:1033D0000C250195022302930123039303230493F5
:1033E0000723059301A90C48FFF7D2FE0B480C4BAD
:1033F00003604FF4E13343608460C460046145615D
:103400008461C461FEF78EFB10B9012007B030BDA6
:103410002046FBE700380240000002407095002083
:10342000004400400138B0F1807F0AD2064B58605A
:10343000064AF02182F823100020986007221A60C3
:1034400070470120704700BF10E000E000ED00E091
:10345000002807DB00F01F02400901239340024AC5
:1034600042F82030704700BF00E100E030B4174B55
:10347000DB68C3F30223C3F10704042C28BF042430
:103480001D1D062D18D9033B4FF0FF3505FA04F436
:1034900021EA0401994005FA03F322EA03031943E0
:1034A00000280BDB0901C9B200F1604000F5614062
:1034B00080F8001330BC70470023E5E700F00F00F0
:1034C0000901C9B2024B1954F4E700BF00ED00E056
:1034D00014ED00E002680E4B9A4200D0704700B530
:1034E00083B00021019103F59C335A6C42F0010234
:1034F0005A645B6C03F001030193019B0A46192097
:10350000FFF7B4FF1920FFF7A3FF03B05DF804FB3A
:1035100000000140A8B110B5044690F83D305BB101
:10352000022384F83D30211D2068FEF74BF801236B
:1035300084F83D30002010BD80F83C30FFF7CAFF12
:10354000EEE701207047000010B582B02448254BFB
:10355000036000234360836040F6D862C260036169
:1035600043618361FFF7D6FF00282FD11E494FF436
:1035700080530B601A48FEF789F848BB1848FEF7DD
:1035800021F938BB00230093019369461448FDF7E5
:10359000D7FE08BB154960230B6000234B608B608E
:1035A000CB600B614B618B6104220D48FEF7DBF8A9
:1035B000A0B90B4C2046FFF7CFFE2046FEF719F9C5
:1035C00004212046FDF7DFFE02B010BDFDF766F9CD
:1035D000FDF764F9FDF762F9FDF760F9FDF75EF9B3
:1035E0003095002000000140B4950020C4950020D3
:1035F00008B5FFF7A9FF08BD074AD36823F4E063C5
:103600001B041B0C000200F4E060184340F0BF6094
:1036100040F40030D060704700ED00E0014B1868C6
:10362000704700BFE8950020002800F0BB8170B50E
:1036300082B00446036813F0010F3BD0A74B9B6890
:1036400003F00C03042B2CD0A44B9B6803F00C0359
:10365000082B21D06368B3F5803F4FD0B3F5A02F7E
:1036600052D09E4B1A6822F480321A601A6822F4F3
:1036700080221A606368002B50D0FFF7CFFF054609
:10368000964B1B6813F4003F14D1FFF7C7FF401B94
:103690006428F5D903208AE1904B5B6813F4800F0E
:1036A000D8D08E4B1B6813F4003F03D06368002B07
:1036B00000F07A81236813F0020F55D0874B9B6886
:1036C00013F00C0F3ED0854B9B6803F00C03082BC6
:1036D00033D0E368002B68D0814B01221A60FFF7DA
:1036E0009DFF05467D4B1B6813F0020F54D1FFF779
:1036F00095FF401B0228F5D9032058E1774A13684B
:1037000043F480331360B5E7744B1A6842F48022A7
:103710001A601A6842F480321A60ABE7FFF77EFF46
:1037200005466E4B1B6813F4003FC3D0FFF776FFCE
:10373000401B6428F5D9032039E1684B5B6813F41A
:10374000800FC6D1654B1B6813F0020F04D0E368ED
:10375000012B01D001202AE1604A1368216923F07E
:10376000F80343EAC1031360236813F0080F40D045
:10377000636963B35B4B01221A60FFF74FFF054695
:10378000564B5B6F13F0020F33D1FFF747FF401B1F
:103790000228F5D903200AE1504A1368216923F071
:1037A000F80343EAC1031360DEE74D4B00221A60C1
:1037B000FFF734FF0546494B1B6813F0020FD3D0C7
:1037C000FFF72CFF401B0228F5D90320EFE0454B03
:1037D00000221A60FFF722FF0546404B5B6F13F093
:1037E000020F06D0FFF71AFF401B0228F5D903206D
:1037F000DDE0236813F0040F79D0384B1B6C13F015
:10380000805F33D100230193344B1A6C42F0805215
:103810001A641B6C03F080530193019B0125324B0A
:103820001B6813F4807F23D0A368012B34D0052BB1
:1038300038D02A4B1A6F22F001021A671A6F22F051
:1038400004021A67A368002B36D0FFF7E7FE06468E
:10385000224B1B6F13F0020F48D1FFF7DFFE801BD6
:1038600041F288339842F3D90320A0E00025D6E73F
:103870001D4A136843F480731360FFF7CFFE0646BA
:10388000194B1B6813F4807FCED1FFF7C7FE801B56
:103890000228F5D903208AE0104A136F43F0010390
:1038A0001367CFE70D4B1A6F42F004021A671A6FC5
:1038B00042F001021A67C5E7FFF7B0FE0646074B64
:1038C0001B6F13F0020F11D0FFF7A8FE801B41F20F
:1038D00088339842F3D9032069E000BF00380240E2
:1038E00000004742800E474200700040E5B9A369DE
:1038F000002B5BD0304A926802F00C02082A58D0A4
:10390000022B17D02D4B00221A60FFF787FE0446CA
:10391000294B1B6813F0007F42D0FFF77FFE001B8E
:103920000228F5D9032042E0234A136C23F0805388
:103930001364DCE7214B00221A60FFF76FFE054697
:103940001D4B1B6813F0007F06D0FFF767FE401B7E
:103950000228F5D903202AE0E369226A1343626A48
:1039600043EA8213A26A5208013A43EA0243E26A36
:1039700043EA0263104A5360104B01221A60FFF7BA
:103980004DFE04460C4B1B6813F0007F06D1FFF779
:1039900045FE001B0228F5D9032008E0002006E0C0
:1039A000002004E001207047012000E0002002B068
:1039B00070BD0120FBE700BF0038024060004742B5
:1039C00038B50446FFF72AFE0546B4F1FF3F00D0A4
:1039D0000134FFF723FE401BA042FAD338BD00009C
:1039E0002DE9F04188B000230393049305930693D7
:1039F00007930368B3F1A04F02D008B0BDE8F0818F
:103A000000250195214C236B43F001032363236BB5
:103A100003F001030193019B4FF4C058CDF80C80D3
:103A20001123049303270697194E03A93046FFF785
:103A3000AFFB4FF00063B3614FF08053B3614FF4BD
:103A40007A70FFF7BDFFCDF80C8002230493059533
:103A500006970A23079303A93046FFF799FB636B88
:103A600043F0800363630295636C43F480436364B3
:103A7000636C03F480430293029B2A462946432049
:103A8000FFF7F4FC4320FFF7E3FCB6E70038024001
:103A90000000024008B5D0F8043843F00203C0F833
:103AA00004380320FFF78CFF002008BD08B5D0F8CC
:103AB000043823F00203C0F804380320FFF780FF26
:103AC000002008BD026890F8BC33012B19D010B556
:103AD000012380F8BC33836A012B0AD004460068B6
:103AE000FFF7E4FF2068FDF759FB002084F8BC03D2
:103AF00010BD8369012BF1D0936B43F48033936342
:103B0000ECE70220704708B5D0F8C402FFF7DAFFEF
:103B1000FCF718FE08BD08B5FFF7F5FF08BD08B5AE
:103B2000C36823F0C043C360012909D069B9C368E1
:103B300043F08043C3603220FFF742FF002008BDFE
:103B4000C36843F00053C360F5E70120F7E7F0B521
:103B50008BB0002800F08A800446056890F8BD33D9
:103B600023B3032384F8BD33EB6B13F4807F01D1BF
:103B7000002323612068FDF70BFB254655F8107BD9
:103B80006E460FCD0FC60FCD0FC695E8030086E831
:103B90000300231D0ECB3846FDF77CFB58B10223F2
:103BA00084F8BD33012528460BB0F0BD80F8BC3346
:103BB000FFF716FFD5E700212068FFF7B0FF0023CD
:103BC00015E0D900C81A82002244012082F83D0085
:103BD00082F83C30A2F84230002082F83F00506466
:103BE0009064CA1A9100214408650133DBB265680C
:103BF000AB42E6D3002315E0D800C11A8A00224464
:103C0000002182F8FD1182F8FC3182F8FF11C2F820
:103C10000412C2F80812C21A90002044C0F8101210
:103C20000133DBB29D42E7D8254655F8107B6E463E
:103C30000FCD0FC60FCD0FC695E8030086E8030031
:103C4000231D0ECB3846FDF7D3F9054620B10223DC
:103C500084F8BD330125A6E7002384F8383001231A
:103C600084F8BD332068FFF715FF9CE701259AE72C
:103C700003780BB10020704710B503461448C0F814
:103C80000434C3F8C4024FF0A0430360042343602C
:103C90000222C260002303618261C3610362436246
:103CA000C3620363FFF753FF80B9094C80212046AC
:103CB000FDF7A0FF402200212046FDF79FFF802254
:103CC00001212046FDF79AFF002010BDFCF7E6FD1C
:103CD00028910020024A136801331360704700BF27
:103CE000E895002010B504460B4B18680B4BA3FB5E
:103CF00000308009FFF796FB58B90F2C01D901203D
:103D000008E0002221464FF0FF30FFF7AFFB002014
:103D100000E0012010BD00BF1C000020D34D621048
:103D2000002800F09D8070B504464F4B1B6803F0DF
:103D30000F038B4209D2CBB24B4A1370136803F0C6
:103D40000F038B4201D0012070BD236813F0020FD6
:103D500017D013F0040F04D0444A936843F4E0539F
:103D60009360236813F0080F04D0404A936843F42B
:103D7000604393603D4A936823F0F003A0680343D7
:103D800093600D46236813F0010F32D06268012A58
:103D900021D0931E012B25D9344B1B6813F0020F41
:103DA00060D032498B6823F0030313438B60FFF725
:103DB00035FC06462D4B9B6803F00C036268B3EBA1
:103DC000820F16D0FFF72AFC801B41F288339842FD
:103DD000F0D90320B8E7254B1B6813F4003FE0D16E
:103DE0000120B1E7214B1B6813F0007FD9D10120DE
:103DF000AAE71D4B1B6803F00F03AB4209D9EAB2D7
:103E0000194B1A701B6803F00F03AB4201D001205D
:103E10009AE7236813F0040F06D0144A936823F43A
:103E2000E053E1680B439360236813F0080F07D059
:103E30000E4A9368216923F4604343EAC103936007
:103E4000FDF79EFE094B9B68C3F30313084AD35C3E
:103E5000D840084B18600020FFF744FF002073E7AC
:103E60000120704701206FE7003C0240003802400B
:103E70000C5900081C00002000B595B0302200212C
:103E800008A800F077FC00210191224B1A6C42F047
:103E900080521A641B6C03F080530193019B0291C2
:103EA0001D4B1A6842F480421A601B6803F4804379
:103EB0000293029B012308934FF48033099302235A
:103EC0000E934FF480020F92102210924FF4A872BA
:103ED000119212930723139308A8FFF7A5FBA8B923
:103EE000002305930F230393022304934FF4A0535D
:103EF00006934FF480530793052103A8FFF710FFA3
:103F000030B9FDF771FE15B05DF804FBFCF7C6FC97
:103F1000FCF7C4FC0038024000700040224B9B6854
:103F200003F00C03042B14D0082B16D01BB11F4B2D
:103F30001F4A1A6002E01D4B1D4A1A601A4B9B680B
:103F4000C3F303131B4AD15C184A1368CB401360B8
:103F50007047164B164A1A60F0E7134B5A685B68B5
:103F600003F03F0312F4800F13D0114AB2FBF3F2B7
:103F70000D4B5B68C3F3881303FB02F30A4A5268D4
:103F8000C2F3014201325200B3FBF2F3074A13605D
:103F9000D4E7074AB2FBF3F2034B5B68C3F3881321
:103FA00003FB02F3EAE700BF003802401C000020D8
:103FB0000024F4000C59000882B0002100910B4B42
:103FC0005A6C42F480425A645A6C02F48042009265
:103FD000009A01911A6C42F080521A641B6C03F033
:103FE00080530193019B02B0704700BF003802402C
:103FF00008B50B4B1A6842F400721A601A6842F452
:1040000080621A601A6842F480721A600320FFF717
:10401000F3FA0020FFF766FEFFF7CEFF002008BD91
:10402000003C024030B58DB0FFF7E2FFFFF724FF00
:10403000FFF774FF00220192274B196B41F0010139
:104040001963196B01F00101019101990292196B39
:1040500041F002011963196B01F00201029102990A
:104060000392196B41F004011963196B01F004010B
:10407000039103990492196B41F008011963196BBC
:1040800001F00801049104990592196B41F01001A7
:104090001963196B01F010010591059906921A6BCD
:1040A00042F080021A631B6B03F080030693069BA9
:1040B0000125089509950F2307930A95074C07A931
:1040C0002046FFF765F8A5610223A3610423A361DD
:1040D0000823A3610DB030BD003802400008024043
:1040E00038B5012800D038BD4FF6FF739942FAD198
:1040F000074D4FF400420021284600F03BFB05F538
:1041000000420023138048F20202AB52EBE700BFEB
:10411000480E0020104A02F500431B8848F20201B5
:10412000525A93420FD39B1A9BB29BB10A4B985C95
:1041300047F6FF739A420BD0013292B2064948F219
:104140000203CA5270479B1A9BB283F40043ECE708
:104150000022F3E77F207047480E002008B5026870
:10416000054B9A4200D008BDFFF7D4FF00EB40009A
:104170008300014A9363F6E70000014010B504464E
:1041800003681A6912F0020F0CD0DA6812F0020FFD
:1041900008D06FF002021A610123037703689B695C
:1041A0000023037723681A6912F0040F0CD0DA6831
:1041B00012F0040F08D06FF004021A610223237773
:1041C00023689B690023237723681A6912F0080F7C
:1041D0000CD0DA6812F0080F08D06FF008021A61EC
:1041E000042323772368DB690023237723681A6974
:1041F00012F0100F0CD0DA6812F0100F08D06FF028
:1042000010021A61082323772368DB6900232377D0
:1042100023681A6912F0010F03D0DA6812F0010F57
:104220001BD123681A6912F0800F03D0DA6812F0EC
:10423000800F19D123681A6912F0400F03D0DA6891
:1042400012F0400F14D123681A6912F0200F03D026
:10425000DA6812F0200F0FD110BD6FF001021A6161
:104260002046FFF77BFFDCE76FF080021A61E1E791
:104270006FF040021A61E6E76FF020021A61EBE787
:1042800000228A4216D230B405E000230A4C238073
:1042900001328A420CD2855C084C04F500431B882D
:1042A000E55447F6FF74A342EFD001339BB2EDE72C
:1042B00030BC7047704700BF488E0020480E002079
:1042C00070B504460E46074D01462846FCF78CFAA9
:1042D0002846FEF7D1FA31882046FFF7D1FF0020AB
:1042E00070BD00BF588E0020004870477C01002040
:1042F00030B583B00D46FFF7F7FF084C0DF106020D
:104300002146FCF77BF9BDF806309A1C2A80237001
:1043100003236370204603B030BD00BF5C01002062
:10432000004870479001002010B50C4638B1FFF7E7
:10433000F7FF22460549FCF761F9044810BDFFF775
:10434000EFFF22460149FCF759F9F6E74404002043
:1043500010B582B00023ADF8063059B10446C4F858
:10436000B8128B6A0DF106009847C4F8CC02002001
:1043700002B010BD054800F015FA054800F012FA29
:104380000A2000F027FA0320F2E700BF6459000872
:104390006C59000808B5B8B10346D0F8B80210B19E
:1043A0000020C3F8B802D3F8CC0210B10020C3F843
:1043B000CC0209B1C3F8B412012183F89C121A701F
:1043C0001846FFF755FC08BD054800F0EBF9054815
:1043D00000F0E8F90A2000F0FDF90320F3E700BF40
:1043E000645900084C59000808B500220D490E48D0
:1043F000FFF7D0FF70B90D490B48FFF7A9FF58B977
:104400000B490948FCF716FA40B90748FFF783FB48
:1044100030B908BDFCF742FAFCF740FAFCF73EFA67
:10442000FCF73CFA00000020588E002020000020FD
:104430004401002008B5FFF7D7FF08BD38B5202894
:1044400005D0212816D0AFF30080002038BD0B78AE
:104450004C7843EA04238C7843EA0443CC7843EA5B
:1044600004630D4C23600B7923714B7963718B7955
:10447000A371E8E7084C23680B70C3F307254D7060
:10448000C3F307458D701B0ECB7023790B716379D5
:104490004B71A3798B71D6E7AC01002038B5044687
:1044A0008121FEF739FA0025258701212046FEF7F4
:1044B00033FAA4F8785182212046FEF72DFAA4F8A9
:1044C0004C50A4F84E50D4F8BC324BB1D4F8C032A2
:1044D0005B689847D4F8BC0200F05CF9C4F8BC52A1
:1044E000002038BD70B504464FF4077000F04AF95B
:1044F000B0B30546C4F8BC02237CB3BB4FF40073D1
:10450000022281212046FEF750FA012626874FF429
:104510000073022231462046FEF747FAA4F878617C
:104520001023A4F84E300823032282212046FEF7F0
:104530003CFA0123A4F84C30D4F8C0321B689847E9
:104540000023C5F81432C5F81832237C0BB340237E
:10455000D5F8042201212046FEF745F8002070BD61
:104560000023C4F8BC320220F9E740230222812153
:104570002046FEF71AFA01262687402302223146FA
:104580002046FEF712FAA4F878611023A4F84E3002
:10459000C9E74FF40073D5F8042201212046FEF745
:1045A00022F80020DBE7000010B5054C0823A361CA
:1045B0000448FFF7E3FD4FF40023A36110BD00BFE3
:1045C00000080240309500200F49D1F8883043F4AC
:1045D0007003C1F888300D4B1A6842F001021A606E
:1045E000002098601A6822F0847222F480321A60E7
:1045F000074A5A601A6822F480221A60D8604FF085
:1046000000638B60704700BF00ED00E0003802409F
:104610001030002408B50248FEF774FB08BD00BF47
:104620002891002008B5FFF755FB0C4A13680133A9
:104630001360632B0CD9134600221A60084A1368D2
:1046400083F00103136023B9064B4FF480329A6163
:1046500008BD044B01229A61FAE700BF508E00208A
:10466000E095002000080240704770477047FEE761
:10467000FEE7FEE7FEE708B5FDF7CCF808BD08B594
:104680004FF6FF710020FFF72BFD08BD08B54FF670
:10469000FF710120FFF724FD08BD000000B583B0C5
:1046A0001D48FFF7BFFCFFF7C5FE1C48FEF782FE62
:1046B000FEF79EFF08E09B1A9BB283F4004315E0CF
:1046C000174B4FF480229A610A20FFF779F9FBF724
:1046D00079FF0028F8D0134A02F500431B8848F2FE
:1046E0000201525A9342E6D39B1A9BB2C3F5004390
:1046F000C3F3852302A800F8013D0121FDF7C0FEA8
:10470000094A136883F001031360002BD8D0044BCF
:1047100004229A61D8E700BF548E0020E49500205F
:1047200000080240480E0020B095002070B50D4EE4
:104730000D4CA41BA4100025A54209D10B4E0C4C16
:1047400001F0D8F8A41BA4100025A54205D170BD26
:1047500056F8253098470135EEE756F8253098474A
:104760000135F2E7245A0008245A0008245A0008A8
:104770002C5A000802440346934200D1704703F8C4
:10478000011BF9E7024B0146186800F0BFBE00BFED
:10479000B4010020024B0146186801F04BB800BF7D
:1047A000B40100200FB40A4B13B51C6824B1A369EF
:1047B00013B9204600F020FE05AB049AA1680193CE
:1047C000204600F045F802B0BDE8104004B0704744
:1047D000B401002038B5084B1C68054624B1A36914
:1047E00013B9204600F008FEA26829462046BDE81D
:1047F000384000F0C9BA00BFB40100209368013B03
:10480000002B10B4936008DA9469A34201DB0A29F3
:1048100003D15DF8044B00F0EDBA1368581C10602A
:10482000197008465DF8044B7047F8B506460F4608
:104830001446D518AC4201D1002007E03A4614F8DE
:10484000011B3046FFF7DAFF431CF3D1F8BD00002F
:104850002DE9F04F9DB00C4617460393064618B15C
:1048600083690BB900F0C8FD7B4B9C4257D174683B
:10487000A38918075DD52369002B5AD0002309931B
:1048800020238DF8293030238DF82A304FF0010B8A
:10489000B846454615F8013B0BB1252B54D1B8EB72
:1048A000070A0BD053463A4621463046FFF7BDFF74
:1048B000013000F0C280099B5344099398F80030FE
:1048C000002B00F0BA8000234FF0FF32CDE9052322
:1048D000049307938DF853301A93A846052218F8CD
:1048E000011B5E48FBF774FC049B78BBD90644BFF0
:1048F00020228DF853201A0744BF2B228DF8532015
:104900002A782A2A2AD0079AA84600200A25414652
:1049100011F8013B303B092B69D960B324E0504BBF
:104920009C4201D1B468A3E74E4B9C4208BFF46897
:104930009EE72146304600F0AFFA00289ED04FF0A7
:10494000FF301DB0BDE8F08FA846A2E7434A801AA9
:104950000BFA00F0184304904546BEE7039A111D78
:1049600012680391002A01DB079204E0524243F0EF
:1049700002030792049398F800302E2B0ED198F87A
:1049800001302A2B38D1039B1A1D1B680392002B80
:10499000B8BF4FF0FF3308F102080593324D98F885
:1049A000001003222846FBF713FC40B14023401BB4
:1049B00003FA00F0049B034308F10108049398F8FC
:1049C00000102A488DF82810062208F10107FBF78D
:1049D000FFFB002837D0264B1BBB039B073323F07C
:1049E000070308330393099B4B44099350E705FBE6
:1049F0000232012088468AE7002308F10108059366
:104A000019460A25404610F8012B303A092A03D9E5
:104A1000002BC3D00591C1E705FB0121012380468E
:104A2000F0E703AB00932246124B04A93046AFF3E4
:104A30000080B0F1FF3F8146D5D1A3895B063FF5E9
:104A40007EAF09987DE703AB00932246094B04A98A
:104A5000304600F087F8ECE7DC5900088859000878
:104A6000FC590008BC5900088E59000892590008EA
:104A7000000000002B4800082DE9F04791461F4632
:104A80008A680B69DDF820809342B8BF1346C9F8E5
:104A9000003091F8432006460C4612B10133C9F8A4
:104AA00000302368990642BFD9F800300233C9F8B4
:104AB0000030256815F0060507D104F1190AE368EE
:104AC000D9F800209B1AAB4228DC94F843302268C6
:104AD000003318BF012392062DD404F14302394656
:104AE0003046C047013020D02368E568D9F800205F
:104AF00003F00603042B08BFAD1AA36822690CBF9C
:104B000025EAE57500259342C4BF9B1AED184FF0C6
:104B100000091A344D451AD1002008E001235246FD
:104B200039463046C047013003D14FF0FF30BDE871
:104B3000F0870135C3E7E1185A1C302081F84300A3
:104B4000224494F8451082F843100233C5E701234C
:104B5000224639463046C0470130E6D009F1010906
:104B6000D8E700002DE9F04301F1430C0C46097E23
:104B700085B06E291746064698460C9A00F0B38019
:104B800022D8632936D00AD8002900F0B9805829E4
:104B900000F0838004F1420584F8421032E0642979
:104BA00001D06929F6D120681368050603F10401D4
:104BB0002AD51B681160002B03DA2D225B4284F892
:104BC00043206F480A2239E0732900F09D8008D8FD
:104BD0006F2920D07029DDD1236843F020032360A2
:104BE00003E0752917D07829D4D1782384F845308B
:104BF000644855E01368191D1B68116004F14205F3
:104C000084F8423001238CE01B68116010F0400FE3
:104C100018BF1BB2CFE713682568181D106028065F
:104C200001D51B6802E06806FBD51B8854486F2934
:104C300014BF0A220822002184F843106568A56089
:104C4000002DC0F29580216821F004012160002B25
:104C50003DD1002D40F08E806546082A0BD1236897
:104C6000DB0708D5236962689A42DEBF302305F866
:104C7000013C05F1FF35ACEB05032361CDF8008065
:104C80003B4603AA21463046FFF7F6FE01304DD1E0
:104C90004FF0FF3005B0BDE8F083394884F8451087
:104CA000136821681D1D1B6815600A060BD5CA070D
:104CB00044BF41F0200121601BB9226822F020028C
:104CC00022601022B7E74D0648BF9BB2EFE765466A
:104CD000B3FBF2F102FB1133C35C05F8013D0B4657
:104CE0000029F5D1B9E7136825686169181D1060BE
:104CF00028061B6801D5196002E06A06FBD51980F9
:104D0000002323616546B9E71368191D11601D680A
:104D1000626800212846FBF75BFA08B1401B60601F
:104D200063682361002384F84330A7E723692A4698
:104D300039463046C0470130AAD023689B0713D4B8
:104D4000E068039B9842B8BF1846A3E701234A4690
:104D500039463046C04701309AD00135E368039A9E
:104D60009B1AAB42F2DCEBE7002504F11909F5E7E9
:104D7000002BACD1037884F8423004F142056CE793
:104D800099590008AA59000870B50D461446064600
:104D900018B183690BB900F02FFB134B9C4212D161
:104DA0007468A368013B002BA36016DAA2699342E2
:104DB00002DBEBB20A2B10D1224629463046BDE871
:104DC000704000F017B8094B9C4201D1B468E8E785
:104DD000074B9C4208BFF468E3E723685A1C226033
:104DE0001D70E8B270BD00BFDC590008FC59000816
:104DF000BC590008F8B50E461446054618B183693B
:104E00000BB900F0F9FA214B9C422AD16C68A369D6
:104E1000A360A3891A072ED5236963B32369206889
:104E2000C01A6369F6B28342374604DC214628463D
:104E300000F0C2FC28BBA368013BA36023685A1C96
:104E400022601E7063690130834204D0A389DB07AE
:104E500019D50A2E17D12146284600F0ADFC90B195
:104E60000FE00B4B9C4201D1AC68D0E7094B9C4250
:104E700008BFEC68CBE72146284600F00DF8002873
:104E8000CCD04FF0FF373846F8BD00BFDC590008E2
:104E9000FC590008BC590008324B70B51D68064625
:104EA0000C4625B1AB6913B9284600F0A5FA2E4B84
:104EB0009C420FD16C68B4F90C309AB215072CD40F
:104EC000D00611D40922326043F04003A3814FF091
:104ED000FF303EE0254B9C4201D1AC68EBE7244B10
:104EE0009C4208BFEC68E6E7510712D5616B41B1FF
:104EF00004F14403994202D0304600F09BFC0023A9
:104F00006363A38923F02403A381002363602369DF
:104F10002360A38943F00803A38123694BB9A389C4
:104F200003F42073B3F5007F03D02146304600F030
:104F300045F8A28912F001030CD00023A360636935
:104F40005B42A361236953B9B4F90C3013F08000BC
:104F5000BAD170BD920758BF6369A360F2E7002021
:104F6000F7E700BFB4010020DC590008FC59000835
:104F7000BC59000870B50E46B1F90E10002996B064
:104F800014461D4607DA00232B60B3891A0610D495
:104F90004FF480630EE06A4600F050F80028F2DB20
:104FA000019A02F47042A2F500535A425A412A6013
:104FB000EEE740230020236016B070BD8B8973B5E7
:104FC0009D0706460C4607D504F14703236023617D
:104FD0000123636102B070BD01AB6A46FFF7CAFFEF
:104FE00000990546304600F091FA48B9B4F90C3002
:104FF0009A05EFD423F0030343F00203A381E3E710
:105000000D4BB362A389206043F08003A381009B12
:105010006361019B20615BB1B4F90E10304600F072
:105020001FF828B1A38923F0030343F00103A381F0
:10503000A3891D43A581CDE7C153000838B5074CAE
:105040000023054608461146236000F064F9431C1E
:1050500002D1236803B12B6038BD00BF98960020B1
:1050600038B5064C002305460846236000F061F978
:10507000431C02D1236803B12B6038BD98960020F1
:105080000A4B10B50446186818B183690BB900F0D3
:10509000B3F9132C07D8064850F83430013302D046
:1050A00000EBC40010BD0020FCE700BFB4010020ED
:1050B000F0950020F8B5431C054609D100F056F9DB
:1050C00013240646002720463946ABBE044634600A
:1050D0002846F8BDF8B5054600F048F91324064601
:1050E000002720463946ABBE044634602846F8BD4A
:1050F00030B585B0CDE901010392062401AD20460B
:105100002946ABBE04462046FFF7D4FF05B030BDAC
:1051100070B50E461546FFF7B3FF044630B900F0F0
:1051200025F9092303604FF0FF3070BD2A46314650
:105130000068FFF7DDFF431C1FBF6368281A1B18B8
:105140006360F2E7F7B50C461646FFF799FF054690
:1051500040B900F00BF9092303604FF0FF342046FB
:1051600003B0F0BD022E03D900F000F91623F3E7D7
:10517000012E12D14368E418F6D42B680A26CDE933
:1051800000346F4630463946ABBE06463046FFF720
:1051900091FF0028E1DB6C60E1E7022EEDD102AF68
:1051A000036847F8083D0C2630463946ABBE064634
:1051B0003046FFF77FFF431CCFD00444DDE7FFF705
:1051C000C1BF30B585B0CDE901010392052401AD21
:1051D00020462946ABBE04462046FFF76BFF05B0CC
:1051E00030BD70B50E461546FFF74AFF044630B98C
:1051F00000F0BCF8092303604FF0FF3070BD2A4671
:1052000031460068FFF7DDFF021EF5DB6368A81A70
:10521000034495426360F1D10020BDE87040FFF780
:1052200059BF37B502AD022445F8040D2046294682
:10523000ABBE04462046FFF73DFF03B030BD000083
:1052400038B50546FFF71CFF044630B900F08EF86C
:10525000092303604FF0FF3038BD013D012D09D80F
:10526000094B9A681B699A4204D14FF0FF330360DF
:105270000020F1E72068FFF7D4FF0028ECD14FF0C1
:10528000FF332360E8E700BFF09500200D4B19685D
:1052900010B5024609B90C491960186869460244FC
:1052A0008A4206D809490A4C0968A14208D08A42B4
:1052B00006D900F05BF80C2303604FF0FF3010BDFF
:1052C0001A60FCE7EC950020A09600201802002050
:1052D000ADDEFECA70B50C46FFF7D2FE064630B909
:1052E00000F044F8092303604FF0FF3070BD63689D
:1052F00043F4005363604FF4806363640C252846D5
:105300003146ABBE05462846FFF7D4FE431C1CBF02
:1053100020610020EAE70B4610B500210446582220
:105320001846FFF727FA01462046BDE81040FFF770
:10533000D1BF70B5FFF7A4FE0925044620B900F0DF
:1053400015F80560204670BD28462146ABBE0446D0
:10535000012CF7D000F00AF8002406461325284651
:105360002146ABBE05463560ECE70000014B1868EE
:10537000704700BFB4010020002310B50446C0E907
:105380000033836081814366C281C0E90433836155
:10539000194608225C30FFF7EDF9054B6362054BB7
:1053A000A362054BE362054B2462236310BD00BF7B
:1053B000E1550008035600083B5600085F560008F8
:1053C000014900F085B800BFB957000870B54A1E02
:1053D000682555430E4605F1740100F097F8044620
:1053E00040B10021C0E900160C30A06005F1680250
:1053F000FFF7C0F9204670BD836910B5044633BB82
:10540000C0E912330365124B124A1B68826298424C
:1054100004BF0123836100F01FF86060204600F0A4
:105420001BF8A060204600F017F80022E06004217D
:105430006068FFF7A1FF01220921A068FFF79CFF28
:1054400002221221E068FFF797FF0123A36110BD3C
:1054500084590008C1530008F8B51B4B1E68B36996
:10546000074613B93046FFF7C7FF4836D6E901347F
:10547000013B03D5336833B13668F7E7B4F90C5014
:105480006DB16834F4E704213846FFF79FFF3060C0
:105490000028F1D10C233B6004462046F8BD0B4B9D
:1054A0006566C4E90055A560C4E90335C4E905553E
:1054B0000822294604F15C00FFF75CF9C4E90D55A8
:1054C000C4E91255E9E700BF845900080100FFFF55
:1054D0002DE9F8438046894600F14804002614B9B6
:1054E0003046BDE8F883D4E90175013F01D5246851
:1054F000F5E7AB89012B07D9B5F90E30013303D09D
:1055000029464046C84706436835EEE770B5CD1CCE
:1055100025F0030508350C2D38BF0C25002D064657
:1055200001DBA94203D90C233360002070BD00F0D9
:105530007FF9214A1468214691B9204C23681BB990
:10554000304600F03DF820602946304600F038F83B
:10555000431C24D10C233360304600F06AF9E4E7A1
:105560000B685B1B18D40B2B0FD90B60CD50CC18DC
:10557000304600F05EF904F10B00231D20F0070017
:10558000C31AD3D05A42E250D0E78C424B6816BFC0
:10559000636013600C46EBE70C464968CCE7C41C1B
:1055A00024F00304A04205D0211A304600F008F888
:1055B0000130CFD02560DBE7909600209496002044
:1055C00038B5064C0023054608462360FFF75EFE0B
:1055D000431C02D1236803B12B6038BD989600208C
:1055E00010B50C46B1F90E1000F072F90028ABBFEF
:1055F000636DA3891B1823F48053ACBF6365A3813B
:1056000010BD2DE9F0411F468B89DB0505460C4690
:10561000164605D502230022B1F90E1000F0F6F867
:10562000A389B4F90E1023F48053A38132463B467C
:105630002846BDE8F04100F017B810B50C46B1F9A6
:105640000E1000F0E3F8431CA38915BF606523F436
:10565000805343F48053A38118BFA38110BDB1F9D7
:105660000E1000F013B8000038B5074C0546084688
:105670001146002222601A46FFF7B3FD431C02D1F7
:10568000236803B12B6038BD9896002038B5064CCE
:105690000023054608462360FFF7D2FD431C02D1D4
:1056A000236803B12B6038BD989600208A892DE9C4
:1056B000F041054610070C4658D44B68002B05DC1A
:1056C0000B6C002B02DC0020BDE8F081E66A002EA6
:1056D000F9D0002312F480522F68216A2B6032D057
:1056E000606DA3895A0705D56368C01A636B0BB157
:1056F000236CC01A00230246E66A216A2846B04796
:10570000431CA38906D129681D2948D8294ACA40C3
:10571000D60744D500226260D9042269226004D5EC
:10572000421C01D12B6803B96065616B2F600029B1
:10573000C9D004F14403994202D0284600F07AF817
:1057400000206063C0E701232846B047411CC8D150
:105750002B68002BC5D01D2B01D0162B01D12F603B
:10576000B1E7A38943F04003A381ADE70F69002FA0
:10577000A9D093070E6808BF4B690F6018BF0023BC
:10578000A6EB07088B60B8F1000F9CDD43463A4654
:10579000216AA66A2846B047002806DCA38943F0A0
:1057A0004003A3814FF0FF308EE70744A8EB0008C9
:1057B000E9E700BF0100402038B50B6905460C46FB
:1057C000DBB118B183690BB9FFF716FE0C4B9C4295
:1057D00009D16C68B4F90C307BB121462846BDE88C
:1057E0003840FFF763BF074B9C4201D1AC68F1E73B
:1057F000054B9C4208BFEC68ECE7002038BD00BFB9
:10580000DC590008FC590008BC59000838B5074CA1
:10581000054608461146002222601A46FFF7CFFCD3
:10582000431C02D1236803B12B6038BD9896002039
:105830007047704738B50546002945D051F8043CFB
:105840000C1F002BB8BFE418FFF7F2FF1F4A1368C4
:10585000104633B9636014602846BDE83840FFF74E
:10586000E8BFA3420CD921686218934204BF1A68AA
:105870005B68636004BF521822600460ECE7134663
:105880005A680AB1A242FAD919685818A0420BD135
:1058900020680144581882421960DDD110685268AE
:1058A0005A6001441960D7E702D90C232B60D3E773
:1058B000206821188A4204BF11685268626004BFE0
:1058C000091821605C60C7E738BD00BF90960020D2
:1058D00038B5074C054608461146002222601A4694
:1058E000FFF716FC431C02D1236803B12B6038BDBF
:1058F00098960020F8B500BFF8BC08BC9E467047DB
:0C590000F8B500BFF8BC08BC9E4670471C
:10590C000000000000000000010203040607080963
:10591C00000000000102030443444320436F6E6601
:10592C006967000043444320496E74657266616385
:10593C0065000000434D424F4152445300000000AB
:10594C00496E76616C69642044657669636520688C
:10595C00616E646C650000004552524F523A200053
:10596C00496E76616C696420436C61737320686165
:10597C006E646C6500000000B8010020232D302BF4
:10598C002000686C4C006566674546470030313234
:10599C00333435363738394142434445460030318B
:1059AC0032333435363738396162636465660000EA
:1059BC0000000000000000000000000000000000DB
:1059CC0000000000000000000000000000000000CB
:1059DC0000000000000000000000000000000000BB
:1059EC0000000000000000000000000000000000AB
:1059FC00000000000000000000000000000000009B
:105A0C00000000000000000000000000000000008A
:085A1C0084A8FF7F01000000D7
:085A2400B50100088D460008E1
:085A2C00910100087F4600080B
:105A3400DD050008D10500087D060008294300089B
:105A4400F142000859060008350600080024F40055
:105A5400E54400089D440008C52600080000000035
:105A640075080008DD240008612500080000000016
:105A740000000000000000005D080008690800083C
:105A8400510800084508000809024300020100C04B
:105A9400FA090400000102020100052400100105B6
:105AA40024010001042402020524060001070582E2
:105AB4000308001009040100020A000000070501A0
:105AC4000240000007058102400000000902430073
